:100000000C945E000C947B000C947B000C947B00A1
:100010000C947B000C947B000C947B000C947B0074
:100020000C947B000C947B000C947B000C947B0064
:100030000C947B000C947B000C947B000C947B0054
:100040000C947B000C947B000C94AC010C94F2019A
:100050000C947B000C947B000C947B000C947B0034
:100060000C947B000C947B009B00A700B000B600B2
:10007000C000C500CB00D80009011E0131013E01BE
:100080005D0133033503480355035A035F036403DB
:10009000690371037E039404A603AC03EE03080412
:1000A0002F03A00445464765666700202B2D2E30A0
:1000B00031323334353637383968000011241FBEE9
:1000C000CFEFD8E0DEBFCDBF11E0A0E0B1E0E0EAC5
:1000D000FDE002C005900D92AA33B107D9F712E0F6
:1000E000AAE3B1E001C01D92A63BB107E1F70E946F
:1000F000AD040C94CE060C94000080914201982F20
:10010000909590FB80F98093420180FF02C0459A50
:1001100001C045988091420180FDE3C0E0913A0121
:100120008E2F90E08D30910508F0DBC0FC01EC5C77
:10013000FF4F0C9427062A9887B18F6087B988B142
:1001400018B8449A8AE08093410181E0C8C0809148
:1001500041018150809341018111C3C082E0BFC041
:100160002A9A8AE08093410183E0B9C080914101DD
:10017000815080934101811103C084E080933A0152
:1001800088B1807F88B9449A089588B1807F88B902
:10019000449886E0A4C088B190913B019F70807F15
:1001A000892B88B9449A87E080933A0188E082C01D
:1001B00028B180913C0190913D01A0913E01B09108
:1001C0003F01AC01BD013CE1769567955795479598
:1001D0003A95D1F7207F422B48B944E0880F991F08
:1001E000AA1FBB1F4A95D1F780933C0190933D0114
:1001F000A0933E01B0933F018091410181508093D3
:10020000410181116EC080913B018430A9F088E0EA
:100210004EC088B190914001292F2F70807F822B92
:1002200088B992959F7090934001809141018150CF
:1002300080934101811155C089E039C088B18F6038
:1002400088B980914101815080934101813019F436
:1002500087B1807F87B980914101811142C08AE0D6
:100260003EC086B18F708530E1F186B18F70F1F4B8
:1002700080913B018430D1F48BE019C08091410121
:10028000815080934101813029F486B18F70809331
:1002900040010895811125C086B120E1829FC001EF
:1002A000112490914001892B809340018CE0809330
:1002B0003A0182E080934101089588B18F6088B946
:1002C00080914101815080934101813019F487B1BF
:1002D0008F6087B980914101811103C084E08093D0
:1002E0003A01089510923A0180913A01843019F050
:1002F0000E947D00F9CF089524E020933B01609394
:100300003C0170933D0180933E0190933F0185E055
:1003100080933A0180913A01843019F00E947D0067
:10032000F9CF80914001089526E020933B0160932E
:100330003C0170933D0180933E0190933F014093B7
:10034000400185E080933A0180913A01843019F0B0
:100350000E947D00F9CF08951F920F920FB60F9261
:1003600011242F933F938F939F93EF93FF9380914B
:10037000C6009091430190FD2AC0E0914A01F0919E
:100380004B019F012F5F3F4F30934B0120934A0158
:100390008083809143018460809343012C5E3140CF
:1003A00031F48CE691E090934B0180934A012091C7
:1003B0004A0130914B0180914801909149012817E1
:1003C000390729F480914301816080934301FF91B3
:1003D000EF919F918F913F912F910F900FBE0F90B2
:1003E0001F9018951F920F920FB60F9211242F9302
:1003F0008F939F93EF93FF93E0914401F091450118
:1004000080914601909147018E179F0721F48091BA
:10041000430181FF1CC0CF01019690934501809359
:10042000440180818093C600809143018D7F809339
:10043000430180914401909145018C56914051F4C3
:100440008CE491E0909345018093440103C088E9D6
:100450008093C100FF91EF919F918F912F910F9009
:100460000FBE0F901F9018958091430184700895DE
:10047000209146013091470140914401509145013E
:1004800024173507E9F78091430181FDF9CF0895DD
:100490008091430182FFFCCFF894E0914801F091F4
:1004A00049019F012F5F3F4F30934901209348013D
:1004B0008081909143019E7F909343012C5E314057
:1004C00031F42CE631E0309349012093480140910A
:1004D00048015091490120914A0130914B01421746
:1004E000530729F4909143019B7F909343017894A3
:1004F00008959091430191FDFCCFF894E09146015D
:10050000F09147019F012F5F3F4F309347012093A8
:10051000460180832C56314031F48CE491E0909375
:100520004701809346012091460130914701809117
:100530004401909145012817390729F4809143011E
:10054000826080934301789488EB8093C100089582
:10055000109243018CE691E0909349018093480109
:1005600090934B0180934A018CE491E09093450174
:1005700080934401909347018093460182E08093E9
:10058000C000A1ECB0E01C92E2ECF0E010828081AF
:100590008660808380E190E09093C5008093C400E2
:1005A00088E98C9308952091EC013091ED01283C6D
:1005B000310569F0A9014F5F5F4F5093ED01409302
:1005C000EC01F901E251FE4F808380E0089581E063
:1005D0000895FC01208131816281862F90E0A0E0A6
:1005E000B0E0DC0199278827932BBC01CD01622B59
:1005F0000895CF93DF9300D000D000D0CDB7DEB701
:10060000CC24C394CE0101967C0184E191E040E1C9
:10061000D42ED80E0E944802182F823108F08EC1C5
:10062000E82FF0E0EE5FFE4F008185B18C2585B9A3
:1006300057018A2D8E19801730F40E944802F50167
:1006400081935F01F6CF812F90E0FC013197E1317A
:10065000F10508F06DC1EF5BFF4F0C94270685E1B3
:100660000E94790265C186E038C086E00E94790266
:100670008FEF0E9479028FEF0E94790283E00E943F
:1006800079021DE180E00E9479021150D9F7C2CFB2
:1006900086E00E94790204E111E0F80181918F0166
:1006A0000E947902D012F9CFB5CF86E00E9479027C
:1006B00080E64DC186E00E94790282E04BC186E06F
:1006C0000E94790283E146C186E00E94790288ECAB
:1006D0003EC186E00E94790280E00E94790281E0BA
:1006E00036C1C7010E94E902886F9F6F0E947C019A
:1006F000182F86E00E947902812F2CC1C7010E9429
:10070000E9021B018C01CE0104960E94E9022B0133
:100710003C0186E00E94790241015801480C591CB5
:100720006A1C7B1C84149504A604B70408F072CFDD
:10073000C501B401886F9F6F0E947C010E947902FD
:10074000FFEF8F1A9F0AAF0ABF0AECCF80E00E942A
:10075000D3028111F3C042C00E944802082F0E94B8
:1007600048020E94480280E00E94D302811120C00A
:10077000802F0E94D30281111BC00E9448020E9458
:10078000D302811117C00E9448020E94D302811136
:1007900013C00E9448020E94D30281110FC00E9420
:1007A00048020E94D302811109C00150C1F7C0C0A4
:1007B00013E005C012E003C011E001C010E0B12C4D
:1007C000B11621F00E944802B394FACF10E010173E
:1007D00009F4B4C00E9448021F5FF9CF81E00E9473
:1007E000D3028111ABC089810E94D3028111A6C0BE
:1007F0008A810E94D3028111A1C08B810E94D30201
:1008000081119CC08C810E94D302811197C090C03D
:1008100000E010E0A090EC01B090ED010A151B057E
:1008200008F082C098012F5F3F4FD801A251BE4F00
:100830008C912A153B0508F07DC0811139C0C80193
:100840000296F901E251FE4F60808A159B0508F07F
:1008500071C082519E4F0E94E902762E98012B5F53
:100860003F4F2A153B0508F065C0862E972E5C0188
:1008700089010F5F1F4FF901E251FE4F40818091C6
:10088000EC019091ED018017910708F453C0C50168
:10089000B401886F9F6F0E9494018FEF881A980AA5
:1008A000A80AB80A9801882D87198611E1CFB2CF1E
:1008B000813009F03FC0F901E251FE4F908112965C
:1008C0008C911297F801349613964C910B5F1F4F41
:1008D000E251FE4F2081A016B10660F150E060E0C9
:1008E00070E0BA0155274427722B492B582B403111
:1008F00051056105710538F495E09A95F1F700000E
:100900004150D1F787CF84E0769567955795479505
:100910008A95D1F7E5E5EA95F1F7000041505109D4
:1009200061097109B9F776CF1092ED011092EC01CF
:1009300086E010C01092ED011092EC0185E10AC032
:1009400086E00E94790280E00E94790280E00E94A5
:10095000790280E00E9479025DCE84B714BE83E004
:1009600085B918B81BB88FEF84B987B98EEF8AB9EB
:1009700078940E94A8020E9438022FEF89EF90E03D
:10098000215080409040E1F700C000000E947201B9
:100990000E94F902ACE0B0E0E0EDF4E00C94F40564
:1009A0006C015B017A01FC0117821682838181FF51
:1009B0000EC1CE0101964C01F6010381F50103FD44
:1009C000159103FF11915F01112309F4FCC0153249
:1009D00049F403FD159103FF11915F01153211F0E8
:1009E00020E01BC0B601812F90E00E94380637013D
:1009F0007301E2CF112309F4E6C0612F70E08BEAA6
:100A000090E02C870E942D062C85892B49F0F5015A
:100A100003FD159103FF11915F0127FFEBCF09C083
:100A2000133229F01C3609F0D5C02068F0CF20E140
:100A3000EECF022F112309F4C6C0612F70E084EAC3
:100A400090E02C870E942D062C85892B41F03701E0
:100A5000F4E06F0E711CB6018FE390E011C0133605
:100A600039F0133781F0133519F5022F01600BC0EF
:100A7000370182E0680E711CB601F7018081918117
:100A80000E943806B5CF3701F2E06F0E711CF701F6
:100A9000E080F180F70100FD859100FF81917F01E9
:100AA000882309F4A5CFB60190E00E943806F2CF62
:100AB000143611F0193629F5370127FF09C0F4E083
:100AC0006F0E711CF70160817181828193810AC070
:100AD000F2E06F0E711CF70160817181882777FD4C
:100AE0008095982F022F0F7E97FF08C090958095D4
:100AF000709561957F4F8F4F9F4F00642AE030E0E3
:100B000033C0103799F040F41835B1F01F3609F0B2
:100B10005AC028E030E014C0153719F0183741F0FA
:100B200052C0022F0F7E2AE030E00AC0022F00617F
:100B3000046220E130E004C0022F046020E132E0D2
:100B4000370107FF09C0F4E06F0E711CF7016081E7
:100B500071818281938108C0F2E06F0E711CF701F0
:100B60006081718180E090E0A4010E947006182FDE
:100B7000181906FF05C0B6018DE290E00E94380604
:100B800004FF15C0FE01E10FF11D8081803379F073
:100B9000B60180E390E00E94380602FF08C00072B0
:100BA000802F90E0B601885A9F4F0E94380611505E
:100BB000F401E10FF11D8081B60190E00E9438063A
:100BC0001111F5CF15CFF6018681978105C08FEF02
:100BD0009FEF02C0022F31CF2C96EEE00C9410064E
:100BE0002F923F924F925F926F927F928F929F923D
:100BF000AF92BF92CF92DF92EF92FF920F931F932B
:100C0000CF93DF93CDB7DEB7CA1BDB0B0FB6F894DB
:100C1000DEBF0FBECDBF09942A88398848885F841B
:100C20006E847D848C849B84AA84B984C884DF808C
:100C3000EE80FD800C811B81AA81B981CE0FD11D70
:100C40000FB6F894DEBF0FBECDBFED010895EE0FD5
:100C5000FF1F0590F491E02D0994FC010590061604
:100C600021F00020D9F7C00108953197CF010895F0
:100C70000F931F93CF93DF93FB01238121FD03C0CB
:100C80008FEF9FEF28C022FF16C046815781248135
:100C900035814217530744F4A081B1819D012F5F34
:100CA0003F4F318320838C93268137812F5F3F4FC5
:100CB0003783268310C0EB01092F182F0084F1859C
:100CC000E02D0995892BE1F68E819F8101969F8306
:100CD0008E83812F902FDF91CF911F910F910895D7
:100CE000FA01AA27283051F1203181F1E8946F935D
:100CF0006E7F6E5F7F4F8F4F9F4FAF4FB1E03ED003
:100D0000B4E03CD0670F781F891F9A1FA11D680FA0
:100D1000791F8A1F911DA11D6A0F711D811D911DD3
:100D2000A11D20D009F468943F912AE0269F112448
:100D30003019305D3193DEF6CF010895462F4770AC
:100D4000405D4193B3E00FD0C9F7F6CF462F4F7007
:100D5000405D4A3318F0495D31FD4052419302D065
:100D6000A9F7EACFB4E0A69597958795779567950B
:100D7000BA95C9F700976105710508959B01AC010B
:100D80000A2E06945795479537952795BA95C9F732
:100D9000620F731F841F951FA01D0895F894FFCF45
:100DA0002401000000000000000000030600040011
:100DB0000400000041544D6567613838204C5043B1
:100DC000202020004175672020322032303135202C
:0A0DD00031353A34393A353000006D
:00000001FF
